{
  "_format": "hh-sol-artifact-1",
  "contractName": "Library",
  "sourceName": "contracts/Library.sol",
  "abi": [
    {
      "anonymous": false,
      "inputs": [
        {
          "indexed": true,
          "internalType": "address",
          "name": "previousOwner",
          "type": "address"
        },
        {
          "indexed": true,
          "internalType": "address",
          "name": "newOwner",
          "type": "address"
        }
      ],
      "name": "OwnershipTransferred",
      "type": "event"
    },
    {
      "inputs": [
        {
          "internalType": "uint256",
          "name": "",
          "type": "uint256"
        }
      ],
      "name": "BookLedger",
      "outputs": [
        {
          "internalType": "string",
          "name": "name",
          "type": "string"
        },
        {
          "internalType": "uint256",
          "name": "availableCopies",
          "type": "uint256"
        },
        {
          "internalType": "uint256",
          "name": "ownerCount",
          "type": "uint256"
        }
      ],
      "stateMutability": "view",
      "type": "function"
    },
    {
      "inputs": [
        {
          "internalType": "string",
          "name": "_name",
          "type": "string"
        },
        {
          "internalType": "uint256",
          "name": "_copies",
          "type": "uint256"
        }
      ],
      "name": "addBook",
      "outputs": [],
      "stateMutability": "nonpayable",
      "type": "function"
    },
    {
      "inputs": [
        {
          "internalType": "uint256",
          "name": "_bookId",
          "type": "uint256"
        },
        {
          "internalType": "uint256",
          "name": "_copies",
          "type": "uint256"
        }
      ],
      "name": "addBookCopies",
      "outputs": [],
      "stateMutability": "nonpayable",
      "type": "function"
    },
    {
      "inputs": [],
      "name": "bookCount",
      "outputs": [
        {
          "internalType": "uint256",
          "name": "",
          "type": "uint256"
        }
      ],
      "stateMutability": "view",
      "type": "function"
    },
    {
      "inputs": [
        {
          "internalType": "uint256",
          "name": "_id",
          "type": "uint256"
        }
      ],
      "name": "borrowBook",
      "outputs": [],
      "stateMutability": "nonpayable",
      "type": "function"
    },
    {
      "inputs": [],
      "name": "getAllAvailableBooks",
      "outputs": [
        {
          "internalType": "uint256[]",
          "name": "",
          "type": "uint256[]"
        }
      ],
      "stateMutability": "view",
      "type": "function"
    },
    {
      "inputs": [
        {
          "internalType": "uint256",
          "name": "_id",
          "type": "uint256"
        }
      ],
      "name": "getBookDetail",
      "outputs": [
        {
          "internalType": "string",
          "name": "",
          "type": "string"
        },
        {
          "internalType": "uint256",
          "name": "",
          "type": "uint256"
        }
      ],
      "stateMutability": "view",
      "type": "function"
    },
    {
      "inputs": [
        {
          "internalType": "uint256",
          "name": "_id",
          "type": "uint256"
        }
      ],
      "name": "getOwnerHistoryOfBook",
      "outputs": [
        {
          "internalType": "address[]",
          "name": "",
          "type": "address[]"
        }
      ],
      "stateMutability": "view",
      "type": "function"
    },
    {
      "inputs": [],
      "name": "owner",
      "outputs": [
        {
          "internalType": "address",
          "name": "",
          "type": "address"
        }
      ],
      "stateMutability": "view",
      "type": "function"
    },
    {
      "inputs": [],
      "name": "renounceOwnership",
      "outputs": [],
      "stateMutability": "nonpayable",
      "type": "function"
    },
    {
      "inputs": [
        {
          "internalType": "uint256",
          "name": "_id",
          "type": "uint256"
        }
      ],
      "name": "returnBook",
      "outputs": [],
      "stateMutability": "nonpayable",
      "type": "function"
    },
    {
      "inputs": [
        {
          "internalType": "address",
          "name": "newOwner",
          "type": "address"
        }
      ],
      "name": "transferOwnership",
      "outputs": [],
      "stateMutability": "nonpayable",
      "type": "function"
    }
  ],
  "bytecode": "0x608060405234801561001057600080fd5b5061001a3361001f565b61006f565b600080546001600160a01b038381166001600160a01b0319831681178455604051919092169283917f8be0079c531659141344cd1fd0a4f28419497f9722a3daafe3b4186f6b6457e09190a35050565b61124c8061007e6000396000f3fe608060405234801561001057600080fd5b50600436106100b45760003560e01c80638da5cb5b116100715780638da5cb5b14610147578063b1790c3514610162578063b905ad7814610183578063ca5140c91461019a578063f2fde38b146101ad578063f4cbc4a6146101c057600080fd5b806360f9eefc146100b9578063637a3872146100ce578063642ea5ce146100e1578063715018a61461010a5780637975c6b4146101125780637e490a9e14610134575b600080fd5b6100cc6100c7366004610db7565b6101d5565b005b6100cc6100dc366004610def565b610295565b6100f46100ef366004610ea4565b610458565b6040516101019190610ebd565b60405180910390f35b6100cc6105bd565b610125610120366004610ea4565b6105d1565b60405161010193929190610f5a565b6100cc610142366004610ea4565b61067b565b6000546040516001600160a01b039091168152602001610101565b610175610170366004610ea4565b610892565b604051610101929190610f7f565b61018c60055481565b604051908152602001610101565b6100cc6101a8366004610ea4565b610941565b6100cc6101bb366004610fa1565b610a1a565b6101c8610a93565b6040516101019190610fd1565b6101dd610bd9565b6000811161021a5760405162461bcd60e51b8152602060048201526005602482015264217a65726f60d81b60448201526064015b60405180910390fd5b60008281526008602052604090208054819061023590611009565b905060000361027c5760405162461bcd60e51b8152602060048201526013602482015272109bdbdac8191bd95cc81b9bdd08195e1a5cdd606a1b6044820152606401610211565b600181015461028b9083610c33565b6001909101555050565b61029d610bd9565b816006816040516102ae9190611043565b9081526040519081900360200190205460ff16156103055760405162461bcd60e51b8152602060048201526014602482015273109bdbdac8105b1c9958591e481c1c995cd95b9d60621b6044820152606401610211565b825160000361034d5760405162461bcd60e51b81526020600482015260146024820152734e616d652063616e6e6f7420626520656d70747960601b6044820152606401610211565b600160068460405161035f9190611043565b908152604051908190036020019020805491151560ff199092169190911790556000610389610c48565b90506103b86040518060400160405280600b81526020016a5f626f6f6b49643a20257360a81b81525082610c5e565b6000818152600860205260409020806103d186826110ae565b50600180820185905560408051808201909152601c81527f426f6f6b4c65646765725b315d2e6f776e6572436f756e743a2025730000000060208083019190915260009290925260089091527fad67d757c34507f157cacfa2e3153e9f260a2244f30428821be7be64587ac561546104499190610c5e565b610451610ca3565b5050505050565b60606104986040518060400160405280601e81526020017f456e746572696e67206765744f776e6572486973746f72794f66426f6f6b0000815250610cb6565b6104ed6040518060400160405280601e81526020017f426f6f6b4c65646765725b5f69645d2e6f776e6572436f756e743a20257300008152506008600085815260200190815260200160002060020154610c5e565b60008281526008602052604081206002015467ffffffffffffffff81111561051757610517610dd9565b604051908082528060200260200182016040528015610540578160200160208202803683370190505b50905060005b81518110156105b657600084815260086020908152604080832084845260030190915290205482516001600160a01b039091169083908390811061058c5761058c61116e565b6001600160a01b0390921660209283029190910190910152806105ae8161119a565b915050610546565b5092915050565b6105c5610bd9565b6105cf6000610cf9565b565b6008602052600090815260409020805481906105ec90611009565b80601f016020809104026020016040519081016040528092919081815260200182805461061890611009565b80156106655780601f1061063a57610100808354040283529160200191610665565b820191906000526020600020905b81548152906001019060200180831161064857829003601f168201915b5050505050908060010154908060020154905083565b6106af60405180604001604052806013815260200172456e746572696e6720626f72726f77426f6f6b60681b815250610cb6565b33600090815260076020908152604080832084845290915290205460ff16156107135760405162461bcd60e51b8152602060048201526016602482015275109bdbdac81a5cc8185b1c9958591e481a5cdcdd595960521b6044820152606401610211565b3360009081526007602090815260408083208484528252808320805460ff1916600190811790915560089092528220808201549092916107539190610d49565b101561075e57600080fd5b6107a16040518060400160405280601881526020017f626f6f6b2e617661696c61626c65436f706965733a20257300000000000000008152508260010154610c5e565b6001818101546107b091610d49565b6001820155604080518082019091526014815273426f72726f77696e67206164647265733a20257360601b60208201526107ea9033610d55565b6002810180546000908152600383016020526040902080546001600160a01b031916331790555461081c906001610c33565b600282015560408051808201909152601c81527f426f6f6b4c65646765725b315d2e6f776e6572436f756e743a202573000000006020808301919091526001600052600890527fad67d757c34507f157cacfa2e3153e9f260a2244f30428821be7be64587ac5615461088e9190610c5e565b5050565b60008181526008602052604081206001810154815460609392919082906108b890611009565b80601f01602080910402602001604051908101604052809291908181526020018280546108e490611009565b80156109315780601f1061090657610100808354040283529160200191610931565b820191906000526020600020905b81548152906001019060200180831161091457829003601f168201915b5050505050915091509150915091565b61097560405180604001604052806013815260200172456e746572696e672072657475726e426f6f6b60681b815250610cb6565b33600090815260076020908152604080832084845290915290205460ff166109d45760405162461bcd60e51b8152602060048201526012602482015271109bdbdac81a5cc81b9bdd081a5cdcdd595960721b6044820152606401610211565b60008181526008602052604090206001808201546109f191610c33565b60019091015533600090815260076020908152604080832093835292905220805460ff19169055565b610a22610bd9565b6001600160a01b038116610a875760405162461bcd60e51b815260206004820152602660248201527f4f776e61626c653a206e6577206f776e657220697320746865207a65726f206160448201526564647265737360d01b6064820152608401610211565b610a9081610cf9565b50565b6060600060015b6005548111610b035733600090815260076020908152604080832084845290915290205460ff16158015610ade575060008181526008602052604090206001015415155b15610af15781610aed8161119a565b9250505b80610afb8161119a565b915050610a9a565b5060008167ffffffffffffffff811115610b1f57610b1f610dd9565b604051908082528060200260200182016040528015610b48578160200160208202803683370190505b5060009250905060015b60055481116105b65733600090815260076020908152604080832084845290915290205460ff16158015610b96575060008181526008602052604090206001015415155b15610bc75780828481518110610bae57610bae61116e565b602090810291909101015282610bc38161119a565b9350505b80610bd18161119a565b915050610b52565b6000546001600160a01b031633146105cf5760405162461bcd60e51b815260206004820181905260248201527f4f776e61626c653a2063616c6c6572206973206e6f7420746865206f776e65726044820152606401610211565b6000610c3f82846111b3565b90505b92915050565b600554600090610c59906001610c33565b905090565b61088e8282604051602401610c74929190610f7f565b60408051601f198184030181529190526020810180516001600160e01b0316632d839cb360e21b179052610d96565b600554610cb1906001610c33565b600555565b610a9081604051602401610cca91906111c6565b60408051601f198184030181529190526020810180516001600160e01b031663104c13eb60e21b179052610d96565b600080546001600160a01b038381166001600160a01b0319831681178455604051919092169283917f8be0079c531659141344cd1fd0a4f28419497f9722a3daafe3b4186f6b6457e09190a35050565b6000610c3f82846111d9565b61088e8282604051602401610d6b9291906111ec565b60408051601f198184030181529190526020810180516001600160e01b031663319af33360e01b1790525b80516a636f6e736f6c652e6c6f67602083016000808483855afa5050505050565b60008060408385031215610dca57600080fd5b50508035926020909101359150565b634e487b7160e01b600052604160045260246000fd5b60008060408385031215610e0257600080fd5b823567ffffffffffffffff80821115610e1a57600080fd5b818501915085601f830112610e2e57600080fd5b813581811115610e4057610e40610dd9565b604051601f8201601f19908116603f01168101908382118183101715610e6857610e68610dd9565b81604052828152886020848701011115610e8157600080fd5b826020860160208301376000602093820184015298969091013596505050505050565b600060208284031215610eb657600080fd5b5035919050565b6020808252825182820181905260009190848201906040850190845b81811015610efe5783516001600160a01b031683529284019291840191600101610ed9565b50909695505050505050565b60005b83811015610f25578181015183820152602001610f0d565b50506000910152565b60008151808452610f46816020860160208601610f0a565b601f01601f19169290920160200192915050565b606081526000610f6d6060830186610f2e565b60208301949094525060400152919050565b604081526000610f926040830185610f2e565b90508260208301529392505050565b600060208284031215610fb357600080fd5b81356001600160a01b0381168114610fca57600080fd5b9392505050565b6020808252825182820181905260009190848201906040850190845b81811015610efe57835183529284019291840191600101610fed565b600181811c9082168061101d57607f821691505b60208210810361103d57634e487b7160e01b600052602260045260246000fd5b50919050565b60008251611055818460208701610f0a565b9190910192915050565b601f8211156110a957600081815260208120601f850160051c810160208610156110865750805b601f850160051c820191505b818110156110a557828155600101611092565b5050505b505050565b815167ffffffffffffffff8111156110c8576110c8610dd9565b6110dc816110d68454611009565b8461105f565b602080601f83116001811461111157600084156110f95750858301515b600019600386901b1c1916600185901b1785556110a5565b600085815260208120601f198616915b8281101561114057888601518255948401946001909101908401611121565b508582101561115e5787850151600019600388901b60f8161c191681555b5050505050600190811b01905550565b634e487b7160e01b600052603260045260246000fd5b634e487b7160e01b600052601160045260246000fd5b6000600182016111ac576111ac611184565b5060010190565b80820180821115610c4257610c42611184565b602081526000610c3f6020830184610f2e565b81810381811115610c4257610c42611184565b6040815260006111ff6040830185610f2e565b905060018060a01b0383166020830152939250505056fea2646970667358221220f2d297ca668b7f720fcfdd67da1dbd53d19942c3f63ade343b0ddd63a5bba46064736f6c63430008110033",
  "linkReferences": {},
  "deployedLinkReferences": {}
}