{
  "_format": "hh-sol-artifact-1",
  "contractName": "Library",
  "sourceName": "contracts/Library.sol",
  "abi": [
    {
      "anonymous": false,
      "inputs": [
        {
          "indexed": true,
          "internalType": "address",
          "name": "previousOwner",
          "type": "address"
        },
        {
          "indexed": true,
          "internalType": "address",
          "name": "newOwner",
          "type": "address"
        }
      ],
      "name": "OwnershipTransferred",
      "type": "event"
    },
    {
      "inputs": [
        {
          "internalType": "uint256",
          "name": "",
          "type": "uint256"
        }
      ],
      "name": "BookLedger",
      "outputs": [
        {
          "internalType": "string",
          "name": "name",
          "type": "string"
        },
        {
          "internalType": "uint256",
          "name": "availableCopies",
          "type": "uint256"
        },
        {
          "internalType": "uint256",
          "name": "ownerCount",
          "type": "uint256"
        }
      ],
      "stateMutability": "view",
      "type": "function"
    },
    {
      "inputs": [
        {
          "internalType": "string",
          "name": "_name",
          "type": "string"
        },
        {
          "internalType": "uint256",
          "name": "_copies",
          "type": "uint256"
        }
      ],
      "name": "addBook",
      "outputs": [],
      "stateMutability": "nonpayable",
      "type": "function"
    },
    {
      "inputs": [
        {
          "internalType": "uint256",
          "name": "_bookId",
          "type": "uint256"
        },
        {
          "internalType": "uint256",
          "name": "_copies",
          "type": "uint256"
        }
      ],
      "name": "addBookCopies",
      "outputs": [],
      "stateMutability": "nonpayable",
      "type": "function"
    },
    {
      "inputs": [],
      "name": "bookCount",
      "outputs": [
        {
          "internalType": "uint256",
          "name": "",
          "type": "uint256"
        }
      ],
      "stateMutability": "view",
      "type": "function"
    },
    {
      "inputs": [
        {
          "internalType": "uint256",
          "name": "_id",
          "type": "uint256"
        }
      ],
      "name": "borrowBook",
      "outputs": [],
      "stateMutability": "nonpayable",
      "type": "function"
    },
    {
      "inputs": [],
      "name": "getAllAvailableBooks",
      "outputs": [
        {
          "internalType": "uint256[]",
          "name": "",
          "type": "uint256[]"
        }
      ],
      "stateMutability": "view",
      "type": "function"
    },
    {
      "inputs": [
        {
          "internalType": "uint256",
          "name": "_id",
          "type": "uint256"
        }
      ],
      "name": "getBookDetail",
      "outputs": [
        {
          "internalType": "string",
          "name": "",
          "type": "string"
        },
        {
          "internalType": "uint256",
          "name": "",
          "type": "uint256"
        }
      ],
      "stateMutability": "view",
      "type": "function"
    },
    {
      "inputs": [
        {
          "internalType": "uint256",
          "name": "_id",
          "type": "uint256"
        }
      ],
      "name": "getOwnerHistoryOfBook",
      "outputs": [
        {
          "internalType": "address[]",
          "name": "",
          "type": "address[]"
        }
      ],
      "stateMutability": "view",
      "type": "function"
    },
    {
      "inputs": [],
      "name": "owner",
      "outputs": [
        {
          "internalType": "address",
          "name": "",
          "type": "address"
        }
      ],
      "stateMutability": "view",
      "type": "function"
    },
    {
      "inputs": [],
      "name": "renounceOwnership",
      "outputs": [],
      "stateMutability": "nonpayable",
      "type": "function"
    },
    {
      "inputs": [
        {
          "internalType": "uint256",
          "name": "_id",
          "type": "uint256"
        }
      ],
      "name": "returnBook",
      "outputs": [],
      "stateMutability": "nonpayable",
      "type": "function"
    },
    {
      "inputs": [
        {
          "internalType": "address",
          "name": "newOwner",
          "type": "address"
        }
      ],
      "name": "transferOwnership",
      "outputs": [],
      "stateMutability": "nonpayable",
      "type": "function"
    }
  ],
  "bytecode": "0x608060405234801561001057600080fd5b5061002d61002261003260201b60201c565b61003a60201b60201c565b6100fe565b600033905090565b60008060009054906101000a900473ffffffffffffffffffffffffffffffffffffffff169050816000806101000a81548173ffffffffffffffffffffffffffffffffffffffff021916908373ffffffffffffffffffffffffffffffffffffffff1602179055508173ffffffffffffffffffffffffffffffffffffffff168173ffffffffffffffffffffffffffffffffffffffff167f8be0079c531659141344cd1fd0a4f28419497f9722a3daafe3b4186f6b6457e060405160405180910390a35050565b61211a806200010e6000396000f3fe608060405234801561001057600080fd5b50600436106100b45760003560e01c80638da5cb5b116100715780638da5cb5b14610179578063b1790c3514610197578063b905ad78146101c8578063ca5140c9146101e6578063f2fde38b14610202578063f4cbc4a61461021e576100b4565b806360f9eefc146100b9578063637a3872146100d5578063642ea5ce146100f1578063715018a6146101215780637975c6b41461012b5780637e490a9e1461015d575b600080fd5b6100d360048036038101906100ce9190611332565b61023c565b005b6100ef60048036038101906100ea91906114b8565b610315565b005b61010b60048036038101906101069190611514565b6104e7565b6040516101189190611631565b60405180910390f35b61012961069d565b005b61014560048036038101906101409190611514565b6106b1565b604051610154939291906116e1565b60405180910390f35b61017760048036038101906101729190611514565b610763565b005b610181610a58565b60405161018e919061172e565b60405180910390f35b6101b160048036038101906101ac9190611514565b610a81565b6040516101bf929190611749565b60405180910390f35b6101d0610b47565b6040516101dd9190611779565b60405180910390f35b61020060048036038101906101fb9190611514565b610b4d565b005b61021c600480360381019061021791906117c0565b610ccc565b005b610226610d4f565b60405161023391906118ab565b60405180910390f35b610244610f3d565b60008111610287576040517f08c379a000000000000000000000000000000000000000000000000000000000815260040161027e90611919565b60405180910390fd5b600060086000848152602001908152602001600020905060008160000180546102af90611968565b9050036102f1576040517f08c379a00000000000000000000000000000000000000000000000000000000081526004016102e8906119e5565b60405180910390fd5b610308828260010154610fbb90919063ffffffff16565b8160010181905550505050565b61031d610f3d565b8160068160405161032e9190611a41565b908152602001604051809103902060009054906101000a900460ff161561038a576040517f08c379a000000000000000000000000000000000000000000000000000000000815260040161038190611aa4565b60405180910390fd5b60008351036103ce576040517f08c379a00000000000000000000000000000000000000000000000000000000081526004016103c590611b10565b60405180910390fd5b60016006846040516103e09190611a41565b908152602001604051809103902060006101000a81548160ff021916908315150217905550600061040f610fd1565b90506104506040518060400160405280600b81526020017f5f626f6f6b49643a20257300000000000000000000000000000000000000000081525082610fee565b6000600860008381526020019081526020016000209050848160000190816104789190611cdc565b508381600101819055506104d86040518060400160405280601c81526020017f426f6f6b4c65646765725b315d2e6f776e6572436f756e743a20257300000000815250600860006001815260200190815260200160002060020154610fee565b6104e061108a565b5050505050565b60606105276040518060400160405280601e81526020017f456e746572696e67206765744f776e6572486973746f72794f66426f6f6b00008152506110a8565b61057c6040518060400160405280601e81526020017f426f6f6b4c65646765725b5f69645d2e6f776e6572436f756e743a20257300008152506008600085815260200190815260200160002060020154610fee565b6000600860008481526020019081526020016000206002015467ffffffffffffffff8111156105ae576105ad61138d565b5b6040519080825280602002602001820160405280156105dc5781602001602082028036833780820191505090505b50905060005b81518110156106935760086000858152602001908152602001600020600301600082815260200190815260200160002060009054906101000a900473ffffffffffffffffffffffffffffffffffffffff1682828151811061064657610645611dae565b5b602002602001019073ffffffffffffffffffffffffffffffffffffffff16908173ffffffffffffffffffffffffffffffffffffffff1681525050808061068b90611e0c565b9150506105e2565b5080915050919050565b6106a5610f3d565b6106af6000611141565b565b60086020528060005260406000206000915090508060000180546106d490611968565b80601f016020809104026020016040519081016040528092919081815260200182805461070090611968565b801561074d5780601f106107225761010080835404028352916020019161074d565b820191906000526020600020905b81548152906001019060200180831161073057829003601f168201915b5050505050908060010154908060020154905083565b6107a16040518060400160405280601381526020017f456e746572696e6720626f72726f77426f6f6b000000000000000000000000008152506110a8565b600760003373ffffffffffffffffffffffffffffffffffffffff1673ffffffffffffffffffffffffffffffffffffffff168152602001908152602001600020600082815260200190815260200160002060009054906101000a900460ff161561083f576040517f08c379a000000000000000000000000000000000000000000000000000000000815260040161083690611ea0565b60405180910390fd5b6001600760003373ffffffffffffffffffffffffffffffffffffffff1673ffffffffffffffffffffffffffffffffffffffff168152602001908152602001600020600083815260200190815260200160002060006101000a81548160ff021916908315150217905550600060086000838152602001908152602001600020905060006108d96001836001015461120590919063ffffffff16565b10156108e457600080fd5b6109276040518060400160405280601881526020017f626f6f6b2e617661696c61626c65436f706965733a20257300000000000000008152508260010154610fee565b61093f6001826001015461120590919063ffffffff16565b81600101819055506109866040518060400160405280601481526020017f426f72726f77696e67206164647265733a2025730000000000000000000000008152503361121b565b338160030160008360020154815260200190815260200160002060006101000a81548173ffffffffffffffffffffffffffffffffffffffff021916908373ffffffffffffffffffffffffffffffffffffffff1602179055506109f660018260020154610fbb90919063ffffffff16565b8160020181905550610a546040518060400160405280601c81526020017f426f6f6b4c65646765725b315d2e6f776e6572436f756e743a20257300000000815250600860006001815260200190815260200160002060020154610fee565b5050565b60008060009054906101000a900473ffffffffffffffffffffffffffffffffffffffff16905090565b60606000600860008481526020019081526020016000206000016008600085815260200190815260200160002060010154818054610abe90611968565b80601f0160208091040260200160405190810160405280929190818152602001828054610aea90611968565b8015610b375780601f10610b0c57610100808354040283529160200191610b37565b820191906000526020600020905b815481529060010190602001808311610b1a57829003601f168201915b5050505050915091509150915091565b60055481565b610b8b6040518060400160405280601381526020017f456e746572696e672072657475726e426f6f6b000000000000000000000000008152506110a8565b600760003373ffffffffffffffffffffffffffffffffffffffff1673ffffffffffffffffffffffffffffffffffffffff168152602001908152602001600020600082815260200190815260200160002060009054906101000a900460ff16610c28576040517f08c379a0000000000000000000000000000000000000000000000000000000008152600401610c1f90611f0c565b60405180910390fd5b6000600860008381526020019081526020016000209050610c5760018260010154610fbb90919063ffffffff16565b81600101819055506000600760003373ffffffffffffffffffffffffffffffffffffffff1673ffffffffffffffffffffffffffffffffffffffff168152602001908152602001600020600084815260200190815260200160002060006101000a81548160ff0219169083151502179055505050565b610cd4610f3d565b600073ffffffffffffffffffffffffffffffffffffffff168173ffffffffffffffffffffffffffffffffffffffff1603610d43576040517f08c379a0000000000000000000000000000000000000000000000000000000008152600401610d3a90611f9e565b60405180910390fd5b610d4c81611141565b50565b6060600080600190505b6005548111610e0a57600760003373ffffffffffffffffffffffffffffffffffffffff1673ffffffffffffffffffffffffffffffffffffffff168152602001908152602001600020600082815260200190815260200160002060009054906101000a900460ff16158015610de3575060006008600083815260200190815260200160002060010154115b15610df7578180610df390611e0c565b9250505b8080610e0290611e0c565b915050610d59565b5060008167ffffffffffffffff811115610e2757610e2661138d565b5b604051908082528060200260200182016040528015610e555781602001602082028036833780820191505090505b509050600091506000600190505b6005548111610f3457600760003373ffffffffffffffffffffffffffffffffffffffff1673ffffffffffffffffffffffffffffffffffffffff168152602001908152602001600020600082815260200190815260200160002060009054906101000a900460ff16158015610eed575060006008600083815260200190815260200160002060010154115b15610f215780828481518110610f0657610f05611dae565b5b6020026020010181815250508280610f1d90611e0c565b9350505b8080610f2c90611e0c565b915050610e63565b50809250505090565b610f456112b7565b73ffffffffffffffffffffffffffffffffffffffff16610f63610a58565b73ffffffffffffffffffffffffffffffffffffffff1614610fb9576040517f08c379a0000000000000000000000000000000000000000000000000000000008152600401610fb09061200a565b60405180910390fd5b565b60008183610fc9919061202a565b905092915050565b6000610fe96001600554610fbb90919063ffffffff16565b905090565b6110868282604051602401611004929190611749565b6040516020818303038152906040527fb60e72cc000000000000000000000000000000000000000000000000000000007bffffffffffffffffffffffffffffffffffffffffffffffffffffffff19166020820180517bffffffffffffffffffffffffffffffffffffffffffffffffffffffff83818316178352505050506112bf565b5050565b6110a06001600554610fbb90919063ffffffff16565b600581905550565b61113e816040516024016110bc919061205e565b6040516020818303038152906040527f41304fac000000000000000000000000000000000000000000000000000000007bffffffffffffffffffffffffffffffffffffffffffffffffffffffff19166020820180517bffffffffffffffffffffffffffffffffffffffffffffffffffffffff83818316178352505050506112bf565b50565b60008060009054906101000a900473ffffffffffffffffffffffffffffffffffffffff169050816000806101000a81548173ffffffffffffffffffffffffffffffffffffffff021916908373ffffffffffffffffffffffffffffffffffffffff1602179055508173ffffffffffffffffffffffffffffffffffffffff168173ffffffffffffffffffffffffffffffffffffffff167f8be0079c531659141344cd1fd0a4f28419497f9722a3daafe3b4186f6b6457e060405160405180910390a35050565b600081836112139190612080565b905092915050565b6112b382826040516024016112319291906120b4565b6040516020818303038152906040527f319af333000000000000000000000000000000000000000000000000000000007bffffffffffffffffffffffffffffffffffffffffffffffffffffffff19166020820180517bffffffffffffffffffffffffffffffffffffffffffffffffffffffff83818316178352505050506112bf565b5050565b600033905090565b60008151905060006a636f6e736f6c652e6c6f679050602083016000808483855afa5050505050565b6000604051905090565b600080fd5b600080fd5b6000819050919050565b61130f816112fc565b811461131a57600080fd5b50565b60008135905061132c81611306565b92915050565b60008060408385031215611349576113486112f2565b5b60006113578582860161131d565b92505060206113688582860161131d565b9150509250929050565b600080fd5b600080fd5b6000601f19601f8301169050919050565b7f4e487b7100000000000000000000000000000000000000000000000000000000600052604160045260246000fd5b6113c58261137c565b810181811067ffffffffffffffff821117156113e4576113e361138d565b5b80604052505050565b60006113f76112e8565b905061140382826113bc565b919050565b600067ffffffffffffffff8211156114235761142261138d565b5b61142c8261137c565b9050602081019050919050565b82818337600083830152505050565b600061145b61145684611408565b6113ed565b90508281526020810184848401111561147757611476611377565b5b611482848285611439565b509392505050565b600082601f83011261149f5761149e611372565b5b81356114af848260208601611448565b91505092915050565b600080604083850312156114cf576114ce6112f2565b5b600083013567ffffffffffffffff8111156114ed576114ec6112f7565b5b6114f98582860161148a565b925050602061150a8582860161131d565b9150509250929050565b60006020828403121561152a576115296112f2565b5b60006115388482850161131d565b91505092915050565b600081519050919050565b600082825260208201905092915050565b6000819050602082019050919050565b600073ffffffffffffffffffffffffffffffffffffffff82169050919050565b60006115988261156d565b9050919050565b6115a88161158d565b82525050565b60006115ba838361159f565b60208301905092915050565b6000602082019050919050565b60006115de82611541565b6115e8818561154c565b93506115f38361155d565b8060005b8381101561162457815161160b88826115ae565b9750611616836115c6565b9250506001810190506115f7565b5085935050505092915050565b6000602082019050818103600083015261164b81846115d3565b905092915050565b600081519050919050565b600082825260208201905092915050565b60005b8381101561168d578082015181840152602081019050611672565b60008484015250505050565b60006116a482611653565b6116ae818561165e565b93506116be81856020860161166f565b6116c78161137c565b840191505092915050565b6116db816112fc565b82525050565b600060608201905081810360008301526116fb8186611699565b905061170a60208301856116d2565b61171760408301846116d2565b949350505050565b6117288161158d565b82525050565b6000602082019050611743600083018461171f565b92915050565b600060408201905081810360008301526117638185611699565b905061177260208301846116d2565b9392505050565b600060208201905061178e60008301846116d2565b92915050565b61179d8161158d565b81146117a857600080fd5b50565b6000813590506117ba81611794565b92915050565b6000602082840312156117d6576117d56112f2565b5b60006117e4848285016117ab565b91505092915050565b600081519050919050565b600082825260208201905092915050565b6000819050602082019050919050565b611822816112fc565b82525050565b60006118348383611819565b60208301905092915050565b6000602082019050919050565b6000611858826117ed565b61186281856117f8565b935061186d83611809565b8060005b8381101561189e5781516118858882611828565b975061189083611840565b925050600181019050611871565b5085935050505092915050565b600060208201905081810360008301526118c5818461184d565b905092915050565b7f217a65726f000000000000000000000000000000000000000000000000000000600082015250565b600061190360058361165e565b915061190e826118cd565b602082019050919050565b60006020820190508181036000830152611932816118f6565b9050919050565b7f4e487b7100000000000000000000000000000000000000000000000000000000600052602260045260246000fd5b6000600282049050600182168061198057607f821691505b60208210810361199357611992611939565b5b50919050565b7f426f6f6b20646f6573206e6f7420657869737400000000000000000000000000600082015250565b60006119cf60138361165e565b91506119da82611999565b602082019050919050565b600060208201905081810360008301526119fe816119c2565b9050919050565b600081905092915050565b6000611a1b82611653565b611a258185611a05565b9350611a3581856020860161166f565b80840191505092915050565b6000611a4d8284611a10565b915081905092915050565b7f426f6f6b20416c72656164792070726573656e74000000000000000000000000600082015250565b6000611a8e60148361165e565b9150611a9982611a58565b602082019050919050565b60006020820190508181036000830152611abd81611a81565b9050919050565b7f4e616d652063616e6e6f7420626520656d707479000000000000000000000000600082015250565b6000611afa60148361165e565b9150611b0582611ac4565b602082019050919050565b60006020820190508181036000830152611b2981611aed565b9050919050565b60008190508160005260206000209050919050565b60006020601f8301049050919050565b600082821b905092915050565b600060088302611b927fffffffffffffffffffffffffffffffffffffffffffffffffffffffffffffffff82611b55565b611b9c8683611b55565b95508019841693508086168417925050509392505050565b6000819050919050565b6000611bd9611bd4611bcf846112fc565b611bb4565b6112fc565b9050919050565b6000819050919050565b611bf383611bbe565b611c07611bff82611be0565b848454611b62565b825550505050565b600090565b611c1c611c0f565b611c27818484611bea565b505050565b5b81811015611c4b57611c40600082611c14565b600181019050611c2d565b5050565b601f821115611c9057611c6181611b30565b611c6a84611b45565b81016020851015611c79578190505b611c8d611c8585611b45565b830182611c2c565b50505b505050565b600082821c905092915050565b6000611cb360001984600802611c95565b1980831691505092915050565b6000611ccc8383611ca2565b9150826002028217905092915050565b611ce582611653565b67ffffffffffffffff811115611cfe57611cfd61138d565b5b611d088254611968565b611d13828285611c4f565b600060209050601f831160018114611d465760008415611d34578287015190505b611d3e8582611cc0565b865550611da6565b601f198416611d5486611b30565b60005b82811015611d7c57848901518255600182019150602085019450602081019050611d57565b86831015611d995784890151611d95601f891682611ca2565b8355505b6001600288020188555050505b505050505050565b7f4e487b7100000000000000000000000000000000000000000000000000000000600052603260045260246000fd5b7f4e487b7100000000000000000000000000000000000000000000000000000000600052601160045260246000fd5b6000611e17826112fc565b91507fffffffffffffffffffffffffffffffffffffffffffffffffffffffffffffffff8203611e4957611e48611ddd565b5b600182019050919050565b7f426f6f6b20697320616c72656164792069737375656400000000000000000000600082015250565b6000611e8a60168361165e565b9150611e9582611e54565b602082019050919050565b60006020820190508181036000830152611eb981611e7d565b9050919050565b7f426f6f6b206973206e6f74206973737565640000000000000000000000000000600082015250565b6000611ef660128361165e565b9150611f0182611ec0565b602082019050919050565b60006020820190508181036000830152611f2581611ee9565b9050919050565b7f4f776e61626c653a206e6577206f776e657220697320746865207a65726f206160008201527f6464726573730000000000000000000000000000000000000000000000000000602082015250565b6000611f8860268361165e565b9150611f9382611f2c565b604082019050919050565b60006020820190508181036000830152611fb781611f7b565b9050919050565b7f4f776e61626c653a2063616c6c6572206973206e6f7420746865206f776e6572600082015250565b6000611ff460208361165e565b9150611fff82611fbe565b602082019050919050565b6000602082019050818103600083015261202381611fe7565b9050919050565b6000612035826112fc565b9150612040836112fc565b925082820190508082111561205857612057611ddd565b5b92915050565b600060208201905081810360008301526120788184611699565b905092915050565b600061208b826112fc565b9150612096836112fc565b92508282039050818111156120ae576120ad611ddd565b5b92915050565b600060408201905081810360008301526120ce8185611699565b90506120dd602083018461171f565b939250505056fea2646970667358221220bfd76897be2aa4da79b28817b7e9b56f410b9c58503535fe146476931d30ff1d64736f6c63430008110033",
  "linkReferences": {},
  "deployedLinkReferences": {}
}